:03000000020BBC34
:0C0BBC00787FE4F6D8FD758120020C0360
:0C000300000000000000000000000000F1
:0B103A00EF1FAC0670011E4C70F62288
:10002A00AB07AA06EB1BAE0270011A4E60097FAA43
:08003A007E0512103A80ED2250
:100A4500907120E04480F07F057E0012103AE4FFAB
:100A5500FE12002A75A75575AC589071327450F086
:100A65009071307403F0907136742FF07F18EF2475
:100A750066FDE434718D82F583E4F00FEFB433EE57
:100A8500904011E4935407FF90711CE054F84FF027
:100A9500904017E493547FFF90711DE054804FF010
:100AA500904010E493FF5401C43333335480FE90D7
:100AB5007123E0547F4EF0EFC313543F4440FFA32E
:100AC500E054804FF0904012E493FF540FFE907174
:100AD50046E054F04EF0EFC4540FFF90714FE054D0
:100AE500F04FF0904013E493543FFF907140E05471
:100AF500C04FF0904014E493907126F0904015E4B7
:0E0B050093907128F0904016E49390712AF0BE
:010B130022BF
:100E0A0075D9DD120A4575D95590715EE054FEF028
:100E1A0075D9BB120F94120FFF120FB1120E611285
:100E2A000F54120F1378D3E254FCF2E24401F29009
:100E3A00718AE4F0C294120B1412069B120DAE12C0
:100E4A000F3490627AE0FEA3E0FF120D4390627CB9
:070E5A00EEF0A3EFF080E2CF
:10096E0042627E17714262801771C1064262820036
:0B097E000042627A177142627C177120
:0A104500E47B717A17F9F802043217
:100E61007812E24401F27856E4F278277417F21806
:100E71007470F27833E4F218F27819E24401F278EE
:100E810011E24401F27817E24401F27812E24401DE
:100E9100F27814E24401F27818E24401F278D3E2E4
:0E0EA10054CFF2E24410F290718C740AF022E9
:10101100AC06EC7833F218EFF27817E24401F222D1
:0C102E007818E230E0037F01227F0022EE
:0D1021007818E24401F290718C740AF022FC
:0E000F0090718CE4F0D2967818E254FEF22242
:100D43009062847417F0A37471F030060A90628481
:100D53007412F0A374C0F090629CE0FCA3E0FD1257
:100D6300053D121045A804A905AA06AB07906284A5
:100D7300E0FEA3E0FFE4FCFD1203A7121045AC065E
:100D8300AD07D390627FE09D90627EE09C5005E0CA
:100D9300FCA3E0FDD3906281E09D906280E09C50D3
:0A0DA30005E0FCA3E0FDAE04AF057F
:010DAD002223
:1009890041627600426274FFFF426278FFFF426271
:1009990072FFFF4162770041626800416269004469
:1009A900626A0000000042626E0000426270FFFF4E
:100EE200907123E054F8F0E0441EF09071227407F0
:100EF200F022E0FF90628DE09F90628CE09E229053
:100F02006269E0C39414229062841204F4C302045E
:010F1200C41A
:100F940078F2E24403F278E3E244C0F278F0E254F7
:0D0FA400FDF208E254FDF208E2440CF222D6
:100FFF0043AA04D2AF786AE24479F27F017E0002FD
:02100F00002AB5
:100EAF00EF24FE601914601E24027020907123E05D
:100EBF0054D8F0E0441D120EEC759917800E120EE7
:100ECF00E27599198006120EE27599187869E24455
:030EDF0048F222B4
:100FE700906272E0FEA3E0FF7C007D0C12031D7D82
:080FF7000A12032FE4FCFD22A5
:100DAE0090628412050C00000000906276E06401EF
:100DBE006049120FE79062841205007F327E337D08
:0E0DCE00017C00120F095033906276E0702D08
:100DDC007FEA7E0BFDFC120F095008906268E0045C
:100DEC00F08005E4906268F0906268E0C3940AE4D5
:0D0DFC004007F090627604F022906276F0DD
:010E090022C6
:100F3400906276E07008300516C2050200459062A2
:100F440076E0B4010A90627E7408F0A37434F0224F
:0300420002056A4A
:10056A00C0E0C0F0C083C082C0D075D000C000C057
:10057A0001C002C003C004C005C006C007786BE210
:06058A0020E103020680DF
:10059000AF93EF75F010A4FFE594C4540FFDEF4D39
:1005A000FF90628CE5F0F0A3EFF0E24402F290627B
:0905B00077E064026003020657C3
:1005B900120F01505EE004F0E0C39402404A9062D9
:1005C9006EE0FEA3D3120EF4400CE0FFA3E09062AC
:1005D9006ECFF0A3EFF0906270E0FEA3C3120EF4A9
:1005E900500CE0FFA3E0906270CFF0A3EFF09062AF
:1005F9006A1204F490628CE0FEA3E0FFE4FCFD12B1
:10060900039A90626A120500120F0150067869E296
:100619004401F2120F01405FA31204E878041204A6
:10062900D5906274EEF0A3EFF09062777403F090C6
:100639006269E4F090626EF0A3F090627074FFF06A
:0C064900A3F090626A12050C0000000093
:100655008029906277E0B4050C90628CE0FFA3E0FE
:100665009062788011906277E0B4070F90628CE019
:0B067500FFA3E0906272CFF0A3EFF053
:10068000D007D006D005D004D003D002D001D000CE
:0B069000D0D0D082D083D0F0D0E03278
:0709B90044629400000000FD
:100FB10043A820D2AF75D10178957401F2187476E7
:0B0FC100F2789174A0F21874FDF22287
:03001E00020C4889
:100C4800C0E0C0F0C083C082C0D075D000C000C072
:100C580001C002C003C004C005C006C0077891E205
:090C680030E742E24480F2D203BD
:100C71002006399062941204E8EF2401FFE43EFE5D
:100C8100E43DFDE43CFC9062941205007F407E7ED1
:100C91007D057C009062941204F4C31204C4400CDC
:0C0CA10090629412050C00000000D206C6
:100CAD00D007D006D005D004D003D002D001D0009B
:0B0CBD00D0D0D082D083D0F0D0E03245
:0909C000C100C101426292000075
:100FCC00906282E0FEA3E0FF22E475F0010203844C
:0B0FDC0090627DE09F90627CE09E220E
:100F540043A901D2AF75D104907105E4F0907104F6
:100F64007424F090710174A0F090710074FDF0226B
:030024000207BB15
:1007BB00C0E0C0F0C083C082C0D075D000C000C004
:1007CB0001C002C003C004C005C006C00790710180
:1007DB00E020E70302087AE04480F090628E120F6B
:1007EB00D5906290120FD5906292120FD5C3906282
:1007FB0091E0940D906290E094004006E4F0A3F039
:10080B00D201C390628FE0940D90628EE094004011
:10081B0006E4F0A3F0D200C3906293E094149062CC
:10082B0092E094004049E4F0A3F0200242120FCC76
:10083B00D3120FDC4009906282E475F00180101234
:10084B000FCCC3120FDC500A90628274FFF5F012CA
:10085B000384120FCC121011D3906283E09400909A
:10086B006282E09400500512000F8003121021D019
:10087B0007D006D005D004D003D002D001D000D0D1
:0A088B00D0D082D083D0F0D0E0324C
:0709C90042629C1771C10797
:100F7400E0FEA3E0FF12053D7B0AE4FAF9F812044F
:100F840032E422906285E094DD906284E09404224D
:10069B00E4906284F0A3F0906278E0FFA3E09062B4
:1006AB0084CFF0A3EFF0906284E0F47003A3E0F446
:1006BB0070030207BA3007030207B2D3906285E0DA
:1006CB0094EA906284E09401500AE490629CF0A357
:1006DB00F00207A5D3120F875029E0FEA3E0FFEF2E
:1006EB002416FFEE34FEFEE434FFFDE434FFFCE49D
:1006FB007BE27A2EF9F81203A7120F7C7BDD7A04CA
:10070B0002078CD3906285E094EE906284E09408AB
:10071B00500E7C5D7DC4120F747BEE7A0802078C41
:10072B00D3906285E09412906284E0940B5017E0B2
:10073B00FEA3E0FF7C177D7112053D7B02120F7E3D
:10074B007B127A0B803BD3906285E094BC906284E1
:10075B00E0940C500D7C8C7DA6120F747BBC7A0C34
:10076B00801FD3906285E09491906284E0940F5047
:10077B001FE0FEA3E0FF7CBB7D88120F797B917A93
:10078B000FF9F812043290629CEEF0A3EFF0800A9E
:10079B0090629C7417F0A37471F090629CE07002ED
:0F07AB00A3E0700BD20722C3120F874002C207D0
:0107BA00221C
:0B09D000C10244629800000000C10357
:100B1400E4906282F0A3F0D20212069B90629CE001
:100B2400FEA3E0FFC3906283E09F906282E09E5048
:100B340066300356C2039062981204E8EF24EEFF75
:100B4400EE3402FEE43DFDE43CFC906298120500A4
:100B5400E47FE87E03FDFC9062981204F4C312045F
:100B6400C440279062981204E8C3EF94E8FFEE941F
:100B740003FEED9400FDEC9400FC906298120500D5
:100B8400906282E475F001120384906282E0FEA315
:100B9400E0FF1210118082906282E0FFA3E0906275
:100BA4007ACFF0A3EFF0906282E0FFA3E090627C42
:080BB400CFF0A3EFF0C2022212
:0409DB0041629F01D5
:07104F007869E24401F2227E
:100F130043A902D2AF75D10890710D7401F090719D
:100F23000C745DF090710974A0F090710874FDF079
:010F3300229B
:0300270002089537
:10089500C0E0C0F0C083C082C0D075D000C000C029
:1008A50001C002C003C004C005C006C0079071099D
:0E08B500E020E703020953907109E04480F04F
:1008C30090629EE004F0E0C39408400AA3E060064F
:1008D300E4F0906277F090629EE0C3940A4007E4EC
:0608E300F0D205A304F0B1
:1008E900906277E06004E0B4070D7F01120EAF90CB
:1008F90062777401F08053906277E0B401081210B6
:100909004F7402F08044906277E0B4030D7F0212C5
:100919000EAF9062777404F08030906277E0B4048F
:100929000812104F7405F08021906277E0B4050D2C
:100939007F03120EAF9062777406F0800D90627794
:10094900E0B4060612104F7407F0D007D006D005A0
:10095900D004D003D002D001D000D0D0D082D0832F
:05096900D0F0D0E032E7
:1009DF004260030000426265000042626310004102
:1009EF0062670060406005FFFF000000000000002C
:1009FF0000000000000000000000000000000000E8
:100A0F0000000000000000000000000000000000D7
:100A1F0000000000000000000000000000000000C7
:100A2F000000000000000041600000416001004133
:050A3F00600200C1048B
:100CC800EF25E0FFEE33FE74472FF58274603EF5A2
:100CD80083227FC37E05E4FDFC9062841204F4D372
:100CE8000204C4ECF0A3EDF090628AE475F001020E
:100CF8000384D3906281E094B8906280E0940B22E0
:100D080090628AE0FEA3E0FFC322906000E025E045
:100D18002405F582E43460F58322E490628AF0A326
:100D2800F02233FE74052FF58274603EF58322901D
:0B0D3800628BE025E0FF90628AE02261
:1000450090628412050C00000000906274E0FFA32A
:10005500E0906288CFF0A3EFF0906288E0F470033F
:10006500A3E0F4700302031C906005E0F47003A3A1
:04007500E0F4703F04
:10007900120D23120D089420EE94005015906288F9
:10008900E0FCA3E0FDEF25E0FFEE120D2A120CEBD8
:1000990080E1120D22120D08940EEE940150599030
:0F00A9006288E0FCA3E0FD120CC8120CEB80E6AD
:1000B800120D12E0FFA3E090628ACFF0A3EFF09058
:1000C8006288E0FEA3E0FF90628AEE8FF01203845C
:1000D80090628AE0C313FEA3E013FF90628AEEF0F9
:1000E800A3EFF0120D12EEF0A3EFF0906000E00421
:0900F800F0E0C394204002E4F0A2
:10010100120D229062841204F4120D37120D2AE0AE
:10011100FEA3E0FFE4FCFD12039A90628412050045
:10012100120CF090628AE07004A3E0642070D49015
:1001310062841204E878051204D5906284120500E5
:100141009062841204E8AD07AC06906046E025E0B9
:10015100FF906045E033FE74472FF58274603EF5F1
:1001610083ECF0A3EDF0906045120CF3C390604670
:0F017100E0940E906045E094014004E4F0A3F0A8
:10018000120D22906265F0A3F09062637410F0A3E8
:10019000E4F0120D08940EEE9401400302022312C3
:1001A0000CC8E0FCA3E0FD906265E0FAA3E0FBD39D
:1001B000ED9BEC9A400F120CCFE0FFA3E09062653C
:1001C000CFF0A3EFF0120D37120CCDE0FCA3E0FD51
:1001D000906263E0FAA3E0FBC3ED9BEC9A500F1230
:1001E0000CCFE0FFA3E0906263CFF0A3EFF090624A
:1001F00063E0FEA3E0FFC3906266E09FFF9062654C
:10020000E09EFED3EF9450EE940040089062677435
:100210001EF08009906267E06003E014F0120CF0B9
:0302200002019246
:10022300E47F8B7E06FDFC9062841204F4C3120407
:10023300C4500C3004597F8B7E06120CDE4050E410
:10024300906001F0A3F0D204906267E0B41E1BE05B
:1002530014F0120CFA400774FFF5F0120384C31272
:100263000CFB400302031C0202D7906267E06003A9
:1002730002031C20000302031CC200C3906281E03E
:100283009471906280E09417400302031C803C1237
:100293000CDA4048E47F6D7E06120CDF4008906064
:1002A30001E064047036300170C201906001E0C364
:1002B30094045003E004F0E4906002F0C204120CD2
:1002C300FA40028043C3120CFB5006E475F0018030
:1002D3003C906280740BF0A374B8F022120CDA40E5
:1002E30006906002E0603230012FC2019060027418
:1002F30001F0E4906001F0C204D3906281E09408BD
:10030300906280E09407400874FF75F0FE02038456
:090313009062807407F0A304F06D
:01031C0022BE
:100BC800020E0AE493A3F8E493A34003F68001F22B
:100BD80008DFF48029E493A3F85407240CC8C3332E
:100BE800C4540F4420C8834004F456800146F6DFFD
:100BF800E4800B010204081020408090096EE47E16
:100C0800019360BCA3FF543F30E509541FFEE493F1
:100C1800A360010ECF54C025E060A840B8E493A3B8
:100C2800FAE493A3F8E493A3C8C582C8CAC583CAE3
:100C3800F0A3C8C582C8CAC583CADFE9DEE780BE9B
:010A440000B1
:10031D00EF8DF0A4A8F0CF8CF0A428CE8DF0A42EF4
:02032D00FE22AE
:10032F00BC000BBE0029EF8DF084FFADF022E4CCB2
:10033F00F875F008EF2FFFEE33FEEC33FCEE9DEC7B
:10034F00984005FCEE9DFE0FD5F0E9E4CEFD22EDC1
:10035F00F8F5F0EE8420D21CFEADF075F008EF2F0B
:10036F00FFED33FD4007985006D5F0F222C398FDFC
:05037F000FD5F0EA2299
:10038400C5F0F8A3E028F0C5F0F8E5821582700204
:060394001583E038F022A1
:0D039A00EF2BFFEE3AFEED39FDEC38FC22B2
:1003A700E88FF0A4CC8BF0A42CFCE98EF0A42CFCF5
:1003B7008AF0EDA42CFCEA8EF0A4CDA8F08BF0A473
:1003C7002DCC3825F0FDE98FF0A42CCD35F0FCEBD2
:1003D7008EF0A4FEA9F0EB8FF0A4CFC5F02ECD3997
:0F03E700FEE43CFCEAA42DCE35F0FDE43CFC2204
:1003F60075F008758200EF2FFFEE33FECD33CDCCBE
:1004060033CCC58233C5829BED9AEC99E582984040
:100416000CF582EE9BFEED9AFDEC99FC0FD5F0D61D
:10042600E4CEFBE4CDFAE4CCF9A88222B800C1B947
:100436000059BA002DEC8BF084CFCECDFCE5F0CB85
:10044600F97818EF2FFFEE33FEED33FDEC33FCEBBE
:1004560033FB10D703994004EB99FB0FD8E5E4F979
:10046600FA227818EF2FFFEE33FEED33FDEC33FC66
:10047600C933C910D7059BE99A4007EC9BFCE99A5A
:10048600F90FD8E0E4C9FAE4CCFB2275F010EF2F9F
:10049600FFEE33FEED33FDCC33CCC833C810D7079F
:1004A6009BEC9AE899400AED9BFDEC9AFCE899F8DA
:0E04B6000FD5F0DAE4CDFBE4CCFAE4C8F9226D
:1004C400EB9FF5F0EA9E42F0E99D42F0E89C45F08E
:0104D4002205
:1004D500E8600FECC313FCED13FDEE13FEEF13FF05
:0304E500D8F12229
:0C04E800E0FCA3E0FDA3E0FEA3E0FF2287
:0C04F400E0F8A3E0F9A3E0FAA3E0FB228B
:0C050000ECF0A3EDF0A3EEF0A3EFF0226E
:10050C00A8828583F0D083D0821205231205231292
:10051C000523120523E473E493A3C583C5F0C583B7
:10052C00C8C582C8F0A3C583C5F0C583C8C582C839
:01053C00229C
:10053D00EC8EF0A4CCC5F0CCCDF8EFA4CEC5F02D4B
:10054D00FDE43CFCE8A42EC8C5F03DFDE43CFCEF09
:0D055D00A4FFE5F028FEE43DFDE43CFC2297
:00000001FF
